{
  "_format": "hh-sol-artifact-1",
  "contractName": "Token",
  "sourceName": "contracts/Token.sol",
  "abi": [
    {
      "inputs": [],
      "stateMutability": "nonpayable",
      "type": "constructor"
    },
    {
      "inputs": [],
      "name": "NotEnoughTokens",
      "type": "error"
    },
    {
      "anonymous": false,
      "inputs": [
        {
          "indexed": true,
          "internalType": "address",
          "name": "_from",
          "type": "address"
        },
        {
          "indexed": true,
          "internalType": "address",
          "name": "_to",
          "type": "address"
        },
        {
          "indexed": false,
          "internalType": "uint256",
          "name": "value",
          "type": "uint256"
        }
      ],
      "name": "Transfer",
      "type": "event"
    },
    {
      "inputs": [],
      "name": "NAME",
      "outputs": [
        {
          "internalType": "string",
          "name": "",
          "type": "string"
        }
      ],
      "stateMutability": "view",
      "type": "function"
    },
    {
      "inputs": [],
      "name": "SYMBOL",
      "outputs": [
        {
          "internalType": "string",
          "name": "",
          "type": "string"
        }
      ],
      "stateMutability": "view",
      "type": "function"
    },
    {
      "inputs": [],
      "name": "TOTAL_SYPPLY",
      "outputs": [
        {
          "internalType": "uint256",
          "name": "",
          "type": "uint256"
        }
      ],
      "stateMutability": "view",
      "type": "function"
    },
    {
      "inputs": [
        {
          "internalType": "address",
          "name": "accountAddress",
          "type": "address"
        }
      ],
      "name": "balanceOf",
      "outputs": [
        {
          "internalType": "uint256",
          "name": "",
          "type": "uint256"
        }
      ],
      "stateMutability": "view",
      "type": "function"
    },
    {
      "inputs": [
        {
          "internalType": "address",
          "name": "to",
          "type": "address"
        },
        {
          "internalType": "uint256",
          "name": "amount",
          "type": "uint256"
        }
      ],
      "name": "transfer",
      "outputs": [],
      "stateMutability": "nonpayable",
      "type": "function"
    }
  ],
  "bytecode": "0x60a060405234801561001057600080fd5b503373ffffffffffffffffffffffffffffffffffffffff1660808173ffffffffffffffffffffffffffffffffffffffff1681525050620f42406000803373ffffffffffffffffffffffffffffffffffffffff1673ffffffffffffffffffffffffffffffffffffffff168152602001908152602001600020819055506080516105fd6100a3600039600050506105fd6000f3fe608060405234801561001057600080fd5b50600436106100575760003560e01c806370a082311461005c578063a3f4df7e1461008c578063a9059cbb146100aa578063cba85186146100c6578063f76f8d78146100e4575b600080fd5b610076600480360381019061007191906103b1565b610102565b60405161008391906103f7565b60405180910390f35b61009461014a565b6040516100a191906104a2565b60405180910390f35b6100c460048036038101906100bf91906104f0565b610183565b005b6100ce61030e565b6040516100db91906103f7565b60405180910390f35b6100ec610315565b6040516100f991906104a2565b60405180910390f35b60008060008373ffffffffffffffffffffffffffffffffffffffff1673ffffffffffffffffffffffffffffffffffffffff168152602001908152602001600020549050919050565b6040518060400160405280601681526020017f50616b6174612773206861726468617420546f6b656e0000000000000000000081525081565b6000803373ffffffffffffffffffffffffffffffffffffffff1673ffffffffffffffffffffffffffffffffffffffff168152602001908152602001600020548111156101fb576040517f22bbb43c00000000000000000000000000000000000000000000000000000000815260040160405180910390fd5b806000808473ffffffffffffffffffffffffffffffffffffffff1673ffffffffffffffffffffffffffffffffffffffff1681526020019081526020016000206000828254610249919061055f565b92505081905550806000803373ffffffffffffffffffffffffffffffffffffffff1673ffffffffffffffffffffffffffffffffffffffff168152602001908152602001600020600082825461029e9190610593565b925050819055508173ffffffffffffffffffffffffffffffffffffffff163373ffffffffffffffffffffffffffffffffffffffff167fddf252ad1be2c89b69c2b068fc378daa952ba7f163c4a11628f55a4df523b3ef8360405161030291906103f7565b60405180910390a35050565b620f424081565b6040518060400160405280600381526020017f504b54000000000000000000000000000000000000000000000000000000000081525081565b600080fd5b600073ffffffffffffffffffffffffffffffffffffffff82169050919050565b600061037e82610353565b9050919050565b61038e81610373565b811461039957600080fd5b50565b6000813590506103ab81610385565b92915050565b6000602082840312156103c7576103c661034e565b5b60006103d58482850161039c565b91505092915050565b6000819050919050565b6103f1816103de565b82525050565b600060208201905061040c60008301846103e8565b92915050565b600081519050919050565b600082825260208201905092915050565b60005b8381101561044c578082015181840152602081019050610431565b60008484015250505050565b6000601f19601f8301169050919050565b600061047482610412565b61047e818561041d565b935061048e81856020860161042e565b61049781610458565b840191505092915050565b600060208201905081810360008301526104bc8184610469565b905092915050565b6104cd816103de565b81146104d857600080fd5b50565b6000813590506104ea816104c4565b92915050565b600080604083850312156105075761050661034e565b5b60006105158582860161039c565b9250506020610526858286016104db565b9150509250929050565b7f4e487b7100000000000000000000000000000000000000000000000000000000600052601160045260246000fd5b600061056a826103de565b9150610575836103de565b925082820190508082111561058d5761058c610530565b5b92915050565b600061059e826103de565b91506105a9836103de565b92508282039050818111156105c1576105c0610530565b5b9291505056fea264697066735822122000f55b3dda423d20d969973ae0fcc3349ec6cabacfb88c432b88a66caeb62f3a64736f6c63430008110033",
  "linkReferences": {},
  "deployedLinkReferences": {}
}